{
  "_format": "hh-sol-artifact-1",
  "contractName": "AutomatedFunctionsConsumerExample",
  "sourceName": "contracts/AutomatedFunctionsConsumerExample.sol",
  "abi": [
    {
      "inputs": [
        {
          "internalType": "address",
          "name": "router",
          "type": "address"
        }
      ],
      "stateMutability": "nonpayable",
      "type": "constructor"
    },
    {
      "inputs": [
        {
          "internalType": "address",
          "name": "caller",
          "type": "address"
        },
        {
          "internalType": "address",
          "name": "owner",
          "type": "address"
        },
        {
          "internalType": "address",
          "name": "automationRegistry",
          "type": "address"
        }
      ],
      "name": "NotAllowedCaller",
      "type": "error"
    },
    {
      "inputs": [],
      "name": "OnlyRouterCanFulfill",
      "type": "error"
    },
    {
      "inputs": [
        {
          "internalType": "bytes32",
          "name": "requestId",
          "type": "bytes32"
        }
      ],
      "name": "UnexpectedRequestID",
      "type": "error"
    },
    {
      "anonymous": false,
      "inputs": [
        {
          "indexed": true,
          "internalType": "address",
          "name": "from",
          "type": "address"
        },
        {
          "indexed": true,
          "internalType": "address",
          "name": "to",
          "type": "address"
        }
      ],
      "name": "OwnershipTransferRequested",
      "type": "event"
    },
    {
      "anonymous": false,
      "inputs": [
        {
          "indexed": true,
          "internalType": "address",
          "name": "from",
          "type": "address"
        },
        {
          "indexed": true,
          "internalType": "address",
          "name": "to",
          "type": "address"
        }
      ],
      "name": "OwnershipTransferred",
      "type": "event"
    },
    {
      "anonymous": false,
      "inputs": [
        {
          "indexed": true,
          "internalType": "bytes32",
          "name": "id",
          "type": "bytes32"
        }
      ],
      "name": "RequestFulfilled",
      "type": "event"
    },
    {
      "anonymous": false,
      "inputs": [
        {
          "indexed": true,
          "internalType": "bytes32",
          "name": "id",
          "type": "bytes32"
        }
      ],
      "name": "RequestSent",
      "type": "event"
    },
    {
      "anonymous": false,
      "inputs": [
        {
          "indexed": true,
          "internalType": "bytes32",
          "name": "requestId",
          "type": "bytes32"
        },
        {
          "indexed": false,
          "internalType": "bytes",
          "name": "response",
          "type": "bytes"
        },
        {
          "indexed": false,
          "internalType": "bytes",
          "name": "err",
          "type": "bytes"
        }
      ],
      "name": "Response",
      "type": "event"
    },
    {
      "inputs": [],
      "name": "acceptOwnership",
      "outputs": [],
      "stateMutability": "nonpayable",
      "type": "function"
    },
    {
      "inputs": [],
      "name": "donID",
      "outputs": [
        {
          "internalType": "bytes32",
          "name": "",
          "type": "bytes32"
        }
      ],
      "stateMutability": "view",
      "type": "function"
    },
    {
      "inputs": [],
      "name": "gasLimit",
      "outputs": [
        {
          "internalType": "uint32",
          "name": "",
          "type": "uint32"
        }
      ],
      "stateMutability": "view",
      "type": "function"
    },
    {
      "inputs": [
        {
          "internalType": "bytes32",
          "name": "requestId",
          "type": "bytes32"
        },
        {
          "internalType": "bytes",
          "name": "response",
          "type": "bytes"
        },
        {
          "internalType": "bytes",
          "name": "err",
          "type": "bytes"
        }
      ],
      "name": "handleOracleFulfillment",
      "outputs": [],
      "stateMutability": "nonpayable",
      "type": "function"
    },
    {
      "inputs": [],
      "name": "owner",
      "outputs": [
        {
          "internalType": "address",
          "name": "",
          "type": "address"
        }
      ],
      "stateMutability": "view",
      "type": "function"
    },
    {
      "inputs": [],
      "name": "request",
      "outputs": [
        {
          "internalType": "bytes",
          "name": "",
          "type": "bytes"
        }
      ],
      "stateMutability": "view",
      "type": "function"
    },
    {
      "inputs": [],
      "name": "s_lastError",
      "outputs": [
        {
          "internalType": "bytes",
          "name": "",
          "type": "bytes"
        }
      ],
      "stateMutability": "view",
      "type": "function"
    },
    {
      "inputs": [],
      "name": "s_lastRequestId",
      "outputs": [
        {
          "internalType": "bytes32",
          "name": "",
          "type": "bytes32"
        }
      ],
      "stateMutability": "view",
      "type": "function"
    },
    {
      "inputs": [],
      "name": "s_lastResponse",
      "outputs": [
        {
          "internalType": "bytes",
          "name": "",
          "type": "bytes"
        }
      ],
      "stateMutability": "view",
      "type": "function"
    },
    {
      "inputs": [],
      "name": "sendRequestCBOR",
      "outputs": [
        {
          "internalType": "bytes32",
          "name": "requestId",
          "type": "bytes32"
        }
      ],
      "stateMutability": "nonpayable",
      "type": "function"
    },
    {
      "inputs": [
        {
          "internalType": "address",
          "name": "_upkeepContract",
          "type": "address"
        }
      ],
      "name": "setAutomationCronContract",
      "outputs": [],
      "stateMutability": "nonpayable",
      "type": "function"
    },
    {
      "inputs": [],
      "name": "subscriptionId",
      "outputs": [
        {
          "internalType": "uint64",
          "name": "",
          "type": "uint64"
        }
      ],
      "stateMutability": "view",
      "type": "function"
    },
    {
      "inputs": [
        {
          "internalType": "address",
          "name": "to",
          "type": "address"
        }
      ],
      "name": "transferOwnership",
      "outputs": [],
      "stateMutability": "nonpayable",
      "type": "function"
    },
    {
      "inputs": [
        {
          "internalType": "bytes",
          "name": "_request",
          "type": "bytes"
        },
        {
          "internalType": "uint64",
          "name": "_subscriptionId",
          "type": "uint64"
        },
        {
          "internalType": "uint32",
          "name": "_gasLimit",
          "type": "uint32"
        },
        {
          "internalType": "bytes32",
          "name": "_donID",
          "type": "bytes32"
        }
      ],
      "name": "updateRequest",
      "outputs": [],
      "stateMutability": "nonpayable",
      "type": "function"
    },
    {
      "inputs": [],
      "name": "upkeepContract",
      "outputs": [
        {
          "internalType": "address",
          "name": "",
          "type": "address"
        }
      ],
      "stateMutability": "view",
      "type": "function"
    }
  ],
  "bytecode": "0x60a060405234801561001057600080fd5b50604051610f22380380610f2283398101604081905261002f91610174565b6001600160a01b03811660805233806000816100925760405162461bcd60e51b815260206004820152601860248201527f43616e6e6f7420736574206f776e657220746f207a65726f000000000000000060448201526064015b60405180910390fd5b600080546001600160a01b0319166001600160a01b03848116919091179091558116156100c2576100c2816100cb565b505050506101a4565b336001600160a01b038216036101235760405162461bcd60e51b815260206004820152601760248201527f43616e6e6f74207472616e7366657220746f2073656c660000000000000000006044820152606401610089565b600180546001600160a01b0319166001600160a01b0383811691821790925560008054604051929316917fed8889f560326eb138920d842192f0eb3dd22b4f139c87a2c57538e05bae12789190a350565b60006020828403121561018657600080fd5b81516001600160a01b038116811461019d57600080fd5b9392505050565b608051610d5c6101c66000396000818161024701526106dc0152610d5c6000f3fe608060405234801561001057600080fd5b50600436106100f55760003560e01c80636e74336b11610097578063b1e2174911610066578063b1e21749146101dc578063c41c7dce146101e5578063f2fde38b146101f8578063f68016b71461020b57600080fd5b80636e74336b146101a757806379ba5097146101b05780638da5cb5b146101b8578063a271f3fe146101c957600080fd5b8063338cdca1116100d3578063338cdca1146101575780633944ea3a1461016c5780634b0795a8146101745780635e0611f11461017c57600080fd5b806309c1ba2e146100fa5780630ca761751461012c57806314b3167814610141575b600080fd5b60045461010e9067ffffffffffffffff1681565b60405167ffffffffffffffff90911681526020015b60405180910390f35b61013f61013a36600461095e565b61023c565b005b6101496102d9565b604051908152602001610123565b61015f610433565b6040516101239190610a11565b61015f6104c1565b61015f6104ce565b60025461018f906001600160a01b031681565b6040516001600160a01b039091168152602001610123565b61014960055481565b61013f6104db565b6000546001600160a01b031661018f565b61013f6101d7366004610a2b565b610599565b61014960065481565b61013f6101f3366004610a54565b6105d0565b61013f610206366004610a2b565b61062a565b6004546102279068010000000000000000900463ffffffff1681565b60405163ffffffff9091168152602001610123565b336001600160a01b037f0000000000000000000000000000000000000000000000000000000000000000161461029e576040517fc6829f8300000000000000000000000000000000000000000000000000000000815260040160405180910390fd5b6102a983838361063e565b60405183907f85e1543bf2f84fe80c6badbce3648c8539ad1df4d2b3d822938ca0538be727e690600090a2505050565b600080546001600160a01b0316331480159061030057506002546001600160a01b03163314155b1561036f57336103186000546001600160a01b031690565b6002546040517f426fbc710000000000000000000000000000000000000000000000000000000081526001600160a01b03938416600482015291831660248301529190911660448201526064015b60405180910390fd5b6104296003805461037f90610acf565b80601f01602080910402602001604051908101604052809291908181526020018280546103ab90610acf565b80156103f85780601f106103cd576101008083540402835291602001916103f8565b820191906000526020600020905b8154815290600101906020018083116103db57829003601f168201915b505060045460055467ffffffffffffffff821694506801000000000000000090910463ffffffff16925090506106d7565b6006819055905090565b6003805461044090610acf565b80601f016020809104026020016040519081016040528092919081815260200182805461046c90610acf565b80156104b95780601f1061048e576101008083540402835291602001916104b9565b820191906000526020600020905b81548152906001019060200180831161049c57829003601f168201915b505050505081565b6007805461044090610acf565b6008805461044090610acf565b6001546001600160a01b031633146105355760405162461bcd60e51b815260206004820152601660248201527f4d7573742062652070726f706f736564206f776e6572000000000000000000006044820152606401610366565b600080543373ffffffffffffffffffffffffffffffffffffffff19808316821784556001805490911690556040516001600160a01b0390921692909183917f8be0079c531659141344cd1fd0a4f28419497f9722a3daafe3b4186f6b6457e091a350565b6105a16107a9565b6002805473ffffffffffffffffffffffffffffffffffffffff19166001600160a01b0392909216919091179055565b6105d86107a9565b60036105e48582610b58565b506004805463ffffffff90931668010000000000000000026bffffffffffffffffffffffff1990931667ffffffffffffffff909416939093179190911790915560055550565b6106326107a9565b61063b81610805565b50565b826006541461067c576040517fd068bf5b00000000000000000000000000000000000000000000000000000000815260048101849052602401610366565b60076106888382610b58565b5060086106958282610b58565b50827f7873807bf6ddc50401cd3d29bbe0decee23fd4d68d273f4b5eb83cded4d2f172600760086040516106ca929190610c95565b60405180910390a2505050565b6000807f00000000000000000000000000000000000000000000000000000000000000006001600160a01b031663461d27628688600188886040518663ffffffff1660e01b815260040161072f959493929190610cc3565b6020604051808303816000875af115801561074e573d6000803e3d6000fd5b505050506040513d601f19601f820116820180604052508101906107729190610d0d565b60405190915081907f1131472297a800fee664d1d89cfa8f7676ff07189ecc53f80bbb5f4969099db890600090a295945050505050565b6000546001600160a01b031633146108035760405162461bcd60e51b815260206004820152601660248201527f4f6e6c792063616c6c61626c65206279206f776e6572000000000000000000006044820152606401610366565b565b336001600160a01b0382160361085d5760405162461bcd60e51b815260206004820152601760248201527f43616e6e6f74207472616e7366657220746f2073656c660000000000000000006044820152606401610366565b6001805473ffffffffffffffffffffffffffffffffffffffff19166001600160a01b0383811691821790925560008054604051929316917fed8889f560326eb138920d842192f0eb3dd22b4f139c87a2c57538e05bae12789190a350565b634e487b7160e01b600052604160045260246000fd5b600082601f8301126108e257600080fd5b813567ffffffffffffffff808211156108fd576108fd6108bb565b604051601f8301601f19908116603f01168101908282118183101715610925576109256108bb565b8160405283815286602085880101111561093e57600080fd5b836020870160208301376000602085830101528094505050505092915050565b60008060006060848603121561097357600080fd5b83359250602084013567ffffffffffffffff8082111561099257600080fd5b61099e878388016108d1565b935060408601359150808211156109b457600080fd5b506109c1868287016108d1565b9150509250925092565b6000815180845260005b818110156109f1576020818501810151868301820152016109d5565b506000602082860101526020601f19601f83011685010191505092915050565b602081526000610a2460208301846109cb565b9392505050565b600060208284031215610a3d57600080fd5b81356001600160a01b0381168114610a2457600080fd5b60008060008060808587031215610a6a57600080fd5b843567ffffffffffffffff80821115610a8257600080fd5b610a8e888389016108d1565b9550602087013591508082168214610aa557600080fd5b509250604085013563ffffffff81168114610abf57600080fd5b9396929550929360600135925050565b600181811c90821680610ae357607f821691505b602082108103610b0357634e487b7160e01b600052602260045260246000fd5b50919050565b601f821115610b5357600081815260208120601f850160051c81016020861015610b305750805b601f850160051c820191505b81811015610b4f57828155600101610b3c565b5050505b505050565b815167ffffffffffffffff811115610b7257610b726108bb565b610b8681610b808454610acf565b84610b09565b602080601f831160018114610bbb5760008415610ba35750858301515b600019600386901b1c1916600185901b178555610b4f565b600085815260208120601f198616915b82811015610bea57888601518255948401946001909101908401610bcb565b5085821015610c085787850151600019600388901b60f8161c191681555b5050505050600190811b01905550565b60008154610c2581610acf565b808552602060018381168015610c425760018114610c5c57610c8a565b60ff1985168884015283151560051b880183019550610c8a565b866000528260002060005b85811015610c825781548a8201860152908301908401610c67565b890184019650505b505050505092915050565b604081526000610ca86040830185610c18565b8281036020840152610cba8185610c18565b95945050505050565b67ffffffffffffffff8616815260a060208201526000610ce660a08301876109cb565b61ffff9590951660408301525063ffffffff92909216606083015260809091015292915050565b600060208284031215610d1f57600080fd5b505191905056fea2646970667358221220c829b630124b64a7eaa040de06a2c1d3ab8775892ef970d025bcec9763debd4264736f6c63430008130033",
  "linkReferences": {},
  "deployedLinkReferences": {}
}