{
  "_format": "hh-sol-artifact-1",
  "contractName": "CallApiCustomConsumer",
  "sourceName": "contracts/CallApiCustomConsumer.sol",
  "abi": [
    {
      "inputs": [
        {
          "internalType": "address",
          "name": "router",
          "type": "address"
        }
      ],
      "stateMutability": "nonpayable",
      "type": "constructor"
    },
    {
      "inputs": [],
      "name": "EmptyArgs",
      "type": "error"
    },
    {
      "inputs": [],
      "name": "EmptySource",
      "type": "error"
    },
    {
      "inputs": [],
      "name": "NoInlineSecrets",
      "type": "error"
    },
    {
      "inputs": [],
      "name": "OnlyRouterCanFulfill",
      "type": "error"
    },
    {
      "inputs": [
        {
          "internalType": "bytes32",
          "name": "requestId",
          "type": "bytes32"
        }
      ],
      "name": "UnexpectedRequestID",
      "type": "error"
    },
    {
      "anonymous": false,
      "inputs": [
        {
          "indexed": true,
          "internalType": "address",
          "name": "from",
          "type": "address"
        },
        {
          "indexed": true,
          "internalType": "address",
          "name": "to",
          "type": "address"
        }
      ],
      "name": "OwnershipTransferRequested",
      "type": "event"
    },
    {
      "anonymous": false,
      "inputs": [
        {
          "indexed": true,
          "internalType": "address",
          "name": "from",
          "type": "address"
        },
        {
          "indexed": true,
          "internalType": "address",
          "name": "to",
          "type": "address"
        }
      ],
      "name": "OwnershipTransferred",
      "type": "event"
    },
    {
      "anonymous": false,
      "inputs": [
        {
          "indexed": true,
          "internalType": "bytes32",
          "name": "id",
          "type": "bytes32"
        }
      ],
      "name": "RequestFulfilled",
      "type": "event"
    },
    {
      "anonymous": false,
      "inputs": [
        {
          "indexed": true,
          "internalType": "bytes32",
          "name": "id",
          "type": "bytes32"
        }
      ],
      "name": "RequestSent",
      "type": "event"
    },
    {
      "anonymous": false,
      "inputs": [
        {
          "indexed": true,
          "internalType": "bytes32",
          "name": "requestId",
          "type": "bytes32"
        },
        {
          "indexed": false,
          "internalType": "bytes",
          "name": "response",
          "type": "bytes"
        },
        {
          "indexed": false,
          "internalType": "bytes",
          "name": "err",
          "type": "bytes"
        }
      ],
      "name": "Response",
      "type": "event"
    },
    {
      "inputs": [],
      "name": "acceptOwnership",
      "outputs": [],
      "stateMutability": "nonpayable",
      "type": "function"
    },
    {
      "inputs": [
        {
          "internalType": "bytes32",
          "name": "requestId",
          "type": "bytes32"
        },
        {
          "internalType": "bytes",
          "name": "response",
          "type": "bytes"
        },
        {
          "internalType": "bytes",
          "name": "err",
          "type": "bytes"
        }
      ],
      "name": "handleOracleFulfillment",
      "outputs": [],
      "stateMutability": "nonpayable",
      "type": "function"
    },
    {
      "inputs": [],
      "name": "owner",
      "outputs": [
        {
          "internalType": "address",
          "name": "",
          "type": "address"
        }
      ],
      "stateMutability": "view",
      "type": "function"
    },
    {
      "inputs": [],
      "name": "s_lastError",
      "outputs": [
        {
          "internalType": "bytes",
          "name": "",
          "type": "bytes"
        }
      ],
      "stateMutability": "view",
      "type": "function"
    },
    {
      "inputs": [],
      "name": "s_lastRequestId",
      "outputs": [
        {
          "internalType": "bytes32",
          "name": "",
          "type": "bytes32"
        }
      ],
      "stateMutability": "view",
      "type": "function"
    },
    {
      "inputs": [],
      "name": "s_lastResponse",
      "outputs": [
        {
          "internalType": "bytes",
          "name": "",
          "type": "bytes"
        }
      ],
      "stateMutability": "view",
      "type": "function"
    },
    {
      "inputs": [
        {
          "internalType": "string",
          "name": "source",
          "type": "string"
        },
        {
          "internalType": "uint64",
          "name": "subscriptionId",
          "type": "uint64"
        },
        {
          "internalType": "string[]",
          "name": "args",
          "type": "string[]"
        },
        {
          "internalType": "uint32",
          "name": "gasLimit",
          "type": "uint32"
        },
        {
          "internalType": "bytes32",
          "name": "donID",
          "type": "bytes32"
        }
      ],
      "name": "sendRequest",
      "outputs": [
        {
          "internalType": "bytes32",
          "name": "requestId",
          "type": "bytes32"
        }
      ],
      "stateMutability": "nonpayable",
      "type": "function"
    },
    {
      "inputs": [
        {
          "internalType": "address",
          "name": "to",
          "type": "address"
        }
      ],
      "name": "transferOwnership",
      "outputs": [],
      "stateMutability": "nonpayable",
      "type": "function"
    }
  ],
  "bytecode": "0x60a06040523480156200001157600080fd5b506040516200183b3803806200183b833981016040819052620000349162000180565b6001600160a01b0381166080523380600081620000985760405162461bcd60e51b815260206004820152601860248201527f43616e6e6f7420736574206f776e657220746f207a65726f000000000000000060448201526064015b60405180910390fd5b600080546001600160a01b0319166001600160a01b0384811691909117909155811615620000cb57620000cb81620000d5565b50505050620001b2565b336001600160a01b038216036200012f5760405162461bcd60e51b815260206004820152601760248201527f43616e6e6f74207472616e7366657220746f2073656c6600000000000000000060448201526064016200008f565b600180546001600160a01b0319166001600160a01b0383811691821790925560008054604051929316917fed8889f560326eb138920d842192f0eb3dd22b4f139c87a2c57538e05bae12789190a350565b6000602082840312156200019357600080fd5b81516001600160a01b0381168114620001ab57600080fd5b9392505050565b608051611666620001d560003960008181610133015261088e01526116666000f3fe608060405234801561001057600080fd5b50600436106100885760003560e01c806379ba50971161005b57806379ba5097146100e95780638da5cb5b146100f1578063b1e217491461010c578063f2fde38b1461011557600080fd5b80630ca761751461008d5780633944ea3a146100a25780634b0795a8146100c05780634d2a596a146100c8575b600080fd5b6100a061009b366004611011565b610128565b005b6100aa6101c5565b6040516100b791906110c4565b60405180910390f35b6100aa610253565b6100db6100d63660046110f0565b610260565b6040519081526020016100b7565b6100a06102ea565b6000546040516001600160a01b0390911681526020016100b7565b6100db60025481565b6100a0610123366004611207565b6103ad565b336001600160a01b037f0000000000000000000000000000000000000000000000000000000000000000161461018a576040517fc6829f8300000000000000000000000000000000000000000000000000000000815260040160405180910390fd5b6101958383836103c1565b60405183907f85e1543bf2f84fe80c6badbce3648c8539ad1df4d2b3d822938ca0538be727e690600090a2505050565b600380546101d290611230565b80601f01602080910402602001604051908101604052809291908181526020018280546101fe90611230565b801561024b5780601f106102205761010080835404028352916020019161024b565b820191906000526020600020905b81548152906001019060200180831161022e57829003601f168201915b505050505081565b600480546101d290611230565b600061026a61045a565b6102ab6040805160e0810190915280600081526020016000815260200160008152602001606081526020016060815260200160608152602001606081525090565b6102b581886104b6565b8451156102c6576102c681866104c7565b6102da6102d28261050a565b878686610889565b6002819055979650505050505050565b6001546001600160a01b031633146103495760405162461bcd60e51b815260206004820152601660248201527f4d7573742062652070726f706f736564206f776e65720000000000000000000060448201526064015b60405180910390fd5b600080543373ffffffffffffffffffffffffffffffffffffffff19808316821784556001805490911690556040516001600160a01b0390921692909183917f8be0079c531659141344cd1fd0a4f28419497f9722a3daafe3b4186f6b6457e091a350565b6103b561045a565b6103be8161095b565b50565b82600254146103ff576040517fd068bf5b00000000000000000000000000000000000000000000000000000000815260048101849052602401610340565b600361040b83826112b8565b50600461041882826112b8565b50827f7873807bf6ddc50401cd3d29bbe0decee23fd4d68d273f4b5eb83cded4d2f1726003600460405161044d9291906113f5565b60405180910390a2505050565b6000546001600160a01b031633146104b45760405162461bcd60e51b815260206004820152601660248201527f4f6e6c792063616c6c61626c65206279206f776e6572000000000000000000006044820152606401610340565b565b6104c38260008084610a11565b5050565b8051600003610502576040517ffe936cb700000000000000000000000000000000000000000000000000000000815260040160405180910390fd5b60a090910152565b60606000610519610100610aa8565b90506105636040518060400160405280600c81526020017f636f64654c6f636174696f6e000000000000000000000000000000000000000081525082610ac990919063ffffffff16565b825161058190600281111561057a5761057a611423565b8290610ae7565b60408051808201909152600881527f6c616e677561676500000000000000000000000000000000000000000000000060208201526105c0908290610ac9565b60408301516105d790801561057a5761057a611423565b60408051808201909152600681527f736f7572636500000000000000000000000000000000000000000000000000006020820152610616908290610ac9565b6060830151610626908290610ac9565b60a083015151156106d35760408051808201909152600481527f61726773000000000000000000000000000000000000000000000000000000006020820152610670908290610ac9565b61067981610b20565b60005b8360a00151518110156106c9576106b98460a0015182815181106106a2576106a2611439565b602002602001015183610ac990919063ffffffff16565b6106c281611465565b905061067c565b506106d381610b44565b608083015151156107d4576000836020015160028111156106f6576106f6611423565b0361072d576040517fa80d31f700000000000000000000000000000000000000000000000000000000815260040160405180910390fd5b60408051808201909152600f81527f736563726574734c6f636174696f6e0000000000000000000000000000000000602082015261076c908290610ac9565b6107858360200151600281111561057a5761057a611423565b60408051808201909152600781527f736563726574730000000000000000000000000000000000000000000000000060208201526107c4908290610ac9565b60808301516107d4908290610b62565b60c083015151156108815760408051808201909152600981527f6279746573417267730000000000000000000000000000000000000000000000602082015261081e908290610ac9565b61082781610b20565b60005b8360c0015151811015610877576108678460c00151828151811061085057610850611439565b602002602001015183610b6290919063ffffffff16565b61087081611465565b905061082a565b5061088181610b44565b515192915050565b6000807f00000000000000000000000000000000000000000000000000000000000000006001600160a01b031663461d27628688600188886040518663ffffffff1660e01b81526004016108e195949392919061147e565b6020604051808303816000875af1158015610900573d6000803e3d6000fd5b505050506040513d601f19601f8201168201806040525081019061092491906114c8565b60405190915081907f1131472297a800fee664d1d89cfa8f7676ff07189ecc53f80bbb5f4969099db890600090a295945050505050565b336001600160a01b038216036109b35760405162461bcd60e51b815260206004820152601760248201527f43616e6e6f74207472616e7366657220746f2073656c660000000000000000006044820152606401610340565b6001805473ffffffffffffffffffffffffffffffffffffffff19166001600160a01b0383811691821790925560008054604051929316917fed8889f560326eb138920d842192f0eb3dd22b4f139c87a2c57538e05bae12789190a350565b8051600003610a4c576040517f22ce3edd00000000000000000000000000000000000000000000000000000000815260040160405180910390fd5b83836002811115610a5f57610a5f611423565b90816002811115610a7257610a72611423565b90525060408401828015610a8857610a88611423565b90818015610a9857610a98611423565b9052506060909301929092525050565b610ab0610f25565b8051610abc9083610b6f565b5060006020820152919050565b610ad68260038351610be9565b8151610ae29082610d10565b505050565b8151610af49060c2610d38565b506104c38282604051602001610b0c91815260200190565b604051602081830303815290604052610b62565b610b2b816004610da1565b600181602001818151610b3e91906114e1565b90525050565b610b4f816007610da1565b600181602001818151610b3e91906114f4565b610ad68260028351610be9565b604080518082019091526060815260006020820152610b8f602083611507565b15610bb757610b9f602083611507565b610baa9060206114f4565b610bb490836114e1565b91505b602080840183905260405180855260008152908184010181811015610bdb57600080fd5b604052508290505b92915050565b60178167ffffffffffffffff1611610c16578251610c109060e0600585901b168317610d38565b50505050565b60ff8167ffffffffffffffff1611610c58578251610c3f906018611fe0600586901b1617610d38565b508251610c109067ffffffffffffffff83166001610db8565b61ffff8167ffffffffffffffff1611610c9b578251610c82906019611fe0600586901b1617610d38565b508251610c109067ffffffffffffffff83166002610db8565b63ffffffff8167ffffffffffffffff1611610ce0578251610cc790601a611fe0600586901b1617610d38565b508251610c109067ffffffffffffffff83166004610db8565b8251610cf790601b611fe0600586901b1617610d38565b508251610c109067ffffffffffffffff83166008610db8565b604080518082019091526060815260006020820152610d3183838451610e3d565b9392505050565b6040805180820190915260608152600060208201528251516000610d5d8260016114e1565b905084602001518210610d7e57610d7e85610d79836002611529565b610f0e565b8451602083820101858153508051821115610d97578181525b5093949350505050565b8151610ae290601f611fe0600585901b1617610d38565b6040805180820190915260608152600060208201528351516000610ddc82856114e1565b90508560200151811115610df957610df986610d79836002611529565b60006001610e0986610100611624565b610e1391906114f4565b90508651828101878319825116178152508051831115610e31578281525b50959695505050505050565b6040805180820190915260608152600060208201528251821115610e6057600080fd5b8351516000610e6f84836114e1565b90508560200151811115610e8c57610e8c86610d79836002611529565b855180518382016020019160009180851115610ea6578482525b505050602086015b60208610610ee65780518252610ec56020836114e1565b9150610ed26020826114e1565b9050610edf6020876114f4565b9550610eae565b51815160001960208890036101000a0190811690199190911617905250849150509392505050565b8151610f1a8383610b6f565b50610c108382610d10565b6040518060400160405280610f4d604051806040016040528060608152602001600081525090565b8152602001600081525090565b634e487b7160e01b600052604160045260246000fd5b604051601f8201601f1916810167ffffffffffffffff81118282101715610f9957610f99610f5a565b604052919050565b600082601f830112610fb257600080fd5b813567ffffffffffffffff811115610fcc57610fcc610f5a565b610fdf601f8201601f1916602001610f70565b818152846020838601011115610ff457600080fd5b816020850160208301376000918101602001919091529392505050565b60008060006060848603121561102657600080fd5b83359250602084013567ffffffffffffffff8082111561104557600080fd5b61105187838801610fa1565b9350604086013591508082111561106757600080fd5b5061107486828701610fa1565b9150509250925092565b6000815180845260005b818110156110a457602081850181015186830182015201611088565b506000602082860101526020601f19601f83011685010191505092915050565b602081526000610d31602083018461107e565b803563ffffffff811681146110eb57600080fd5b919050565b600080600080600060a0868803121561110857600080fd5b853567ffffffffffffffff8082111561112057600080fd5b61112c89838a01610fa1565b96506020915081880135818116811461114457600080fd5b955060408801358181111561115857600080fd5b8801601f81018a1361116957600080fd5b80358281111561117b5761117b610f5a565b8060051b61118a858201610f70565b918252828101850191858101908d8411156111a457600080fd5b86850192505b838310156111e0578235868111156111c25760008081fd5b6111d08f8983890101610fa1565b83525091860191908601906111aa565b809950505050505050506111f6606087016110d7565b949793965091946080013592915050565b60006020828403121561121957600080fd5b81356001600160a01b0381168114610d3157600080fd5b600181811c9082168061124457607f821691505b60208210810361126457634e487b7160e01b600052602260045260246000fd5b50919050565b601f821115610ae257600081815260208120601f850160051c810160208610156112915750805b601f850160051c820191505b818110156112b05782815560010161129d565b505050505050565b815167ffffffffffffffff8111156112d2576112d2610f5a565b6112e6816112e08454611230565b8461126a565b602080601f83116001811461131b57600084156113035750858301515b600019600386901b1c1916600185901b1785556112b0565b600085815260208120601f198616915b8281101561134a5788860151825594840194600190910190840161132b565b50858210156113685787850151600019600388901b60f8161c191681555b5050505050600190811b01905550565b6000815461138581611230565b8085526020600183811680156113a257600181146113bc576113ea565b60ff1985168884015283151560051b8801830195506113ea565b866000528260002060005b858110156113e25781548a82018601529083019084016113c7565b890184019650505b505050505092915050565b6040815260006114086040830185611378565b828103602084015261141a8185611378565b95945050505050565b634e487b7160e01b600052602160045260246000fd5b634e487b7160e01b600052603260045260246000fd5b634e487b7160e01b600052601160045260246000fd5b6000600182016114775761147761144f565b5060010190565b67ffffffffffffffff8616815260a0602082015260006114a160a083018761107e565b61ffff9590951660408301525063ffffffff92909216606083015260809091015292915050565b6000602082840312156114da57600080fd5b5051919050565b80820180821115610be357610be361144f565b81810381811115610be357610be361144f565b60008261152457634e487b7160e01b600052601260045260246000fd5b500690565b8082028115828204841417610be357610be361144f565b600181815b8085111561157b5781600019048211156115615761156161144f565b8085161561156e57918102915b93841c9390800290611545565b509250929050565b60008261159257506001610be3565b8161159f57506000610be3565b81600181146115b557600281146115bf576115db565b6001915050610be3565b60ff8411156115d0576115d061144f565b50506001821b610be3565b5060208310610133831016604e8410600b84101617156115fe575081810a610be3565b6116088383611540565b806000190482111561161c5761161c61144f565b029392505050565b6000610d31838361158356fea26469706673582212202953effb9940766e90a208535a9b5e91d41b65be891ededf18b033c6c0b862b264736f6c63430008130033",
  "linkReferences": {},
  "deployedLinkReferences": {}
}