{
  "_format": "hh-sol-artifact-1",
  "contractName": "CustomAutomatedFunctionsConsumerExample",
  "sourceName": "contracts/CustomAutomatedFunctionsConsumerExample.sol",
  "abi": [
    {
      "inputs": [
        {
          "internalType": "address",
          "name": "router",
          "type": "address"
        }
      ],
      "stateMutability": "nonpayable",
      "type": "constructor"
    },
    {
      "inputs": [],
      "name": "OnlyRouterCanFulfill",
      "type": "error"
    },
    {
      "inputs": [
        {
          "internalType": "bytes32",
          "name": "requestId",
          "type": "bytes32"
        }
      ],
      "name": "UnexpectedRequestID",
      "type": "error"
    },
    {
      "anonymous": false,
      "inputs": [
        {
          "indexed": true,
          "internalType": "address",
          "name": "from",
          "type": "address"
        },
        {
          "indexed": true,
          "internalType": "address",
          "name": "to",
          "type": "address"
        }
      ],
      "name": "OwnershipTransferRequested",
      "type": "event"
    },
    {
      "anonymous": false,
      "inputs": [
        {
          "indexed": true,
          "internalType": "address",
          "name": "from",
          "type": "address"
        },
        {
          "indexed": true,
          "internalType": "address",
          "name": "to",
          "type": "address"
        }
      ],
      "name": "OwnershipTransferred",
      "type": "event"
    },
    {
      "anonymous": false,
      "inputs": [
        {
          "indexed": true,
          "internalType": "bytes32",
          "name": "id",
          "type": "bytes32"
        }
      ],
      "name": "RequestFulfilled",
      "type": "event"
    },
    {
      "anonymous": false,
      "inputs": [
        {
          "indexed": false,
          "internalType": "string",
          "name": "reason",
          "type": "string"
        }
      ],
      "name": "RequestRevertedWithErrorMsg",
      "type": "event"
    },
    {
      "anonymous": false,
      "inputs": [
        {
          "indexed": false,
          "internalType": "bytes",
          "name": "data",
          "type": "bytes"
        }
      ],
      "name": "RequestRevertedWithoutErrorMsg",
      "type": "event"
    },
    {
      "anonymous": false,
      "inputs": [
        {
          "indexed": true,
          "internalType": "bytes32",
          "name": "id",
          "type": "bytes32"
        }
      ],
      "name": "RequestSent",
      "type": "event"
    },
    {
      "anonymous": false,
      "inputs": [
        {
          "indexed": true,
          "internalType": "bytes32",
          "name": "requestId",
          "type": "bytes32"
        },
        {
          "indexed": false,
          "internalType": "bytes",
          "name": "response",
          "type": "bytes"
        },
        {
          "indexed": false,
          "internalType": "bytes",
          "name": "err",
          "type": "bytes"
        }
      ],
      "name": "Response",
      "type": "event"
    },
    {
      "inputs": [],
      "name": "acceptOwnership",
      "outputs": [],
      "stateMutability": "nonpayable",
      "type": "function"
    },
    {
      "inputs": [
        {
          "internalType": "bytes",
          "name": "",
          "type": "bytes"
        }
      ],
      "name": "checkUpkeep",
      "outputs": [
        {
          "internalType": "bool",
          "name": "upkeepNeeded",
          "type": "bool"
        },
        {
          "internalType": "bytes",
          "name": "performData",
          "type": "bytes"
        }
      ],
      "stateMutability": "view",
      "type": "function"
    },
    {
      "inputs": [],
      "name": "donID",
      "outputs": [
        {
          "internalType": "bytes32",
          "name": "",
          "type": "bytes32"
        }
      ],
      "stateMutability": "view",
      "type": "function"
    },
    {
      "inputs": [],
      "name": "gasLimit",
      "outputs": [
        {
          "internalType": "uint32",
          "name": "",
          "type": "uint32"
        }
      ],
      "stateMutability": "view",
      "type": "function"
    },
    {
      "inputs": [
        {
          "internalType": "bytes32",
          "name": "requestId",
          "type": "bytes32"
        },
        {
          "internalType": "bytes",
          "name": "response",
          "type": "bytes"
        },
        {
          "internalType": "bytes",
          "name": "err",
          "type": "bytes"
        }
      ],
      "name": "handleOracleFulfillment",
      "outputs": [],
      "stateMutability": "nonpayable",
      "type": "function"
    },
    {
      "inputs": [],
      "name": "lastBlockNumber",
      "outputs": [
        {
          "internalType": "uint256",
          "name": "",
          "type": "uint256"
        }
      ],
      "stateMutability": "view",
      "type": "function"
    },
    {
      "inputs": [],
      "name": "owner",
      "outputs": [
        {
          "internalType": "address",
          "name": "",
          "type": "address"
        }
      ],
      "stateMutability": "view",
      "type": "function"
    },
    {
      "inputs": [
        {
          "internalType": "bytes",
          "name": "",
          "type": "bytes"
        }
      ],
      "name": "performUpkeep",
      "outputs": [],
      "stateMutability": "nonpayable",
      "type": "function"
    },
    {
      "inputs": [],
      "name": "request",
      "outputs": [
        {
          "internalType": "bytes",
          "name": "",
          "type": "bytes"
        }
      ],
      "stateMutability": "view",
      "type": "function"
    },
    {
      "inputs": [],
      "name": "s_lastError",
      "outputs": [
        {
          "internalType": "bytes",
          "name": "",
          "type": "bytes"
        }
      ],
      "stateMutability": "view",
      "type": "function"
    },
    {
      "inputs": [],
      "name": "s_lastRequestId",
      "outputs": [
        {
          "internalType": "bytes32",
          "name": "",
          "type": "bytes32"
        }
      ],
      "stateMutability": "view",
      "type": "function"
    },
    {
      "inputs": [],
      "name": "s_lastResponse",
      "outputs": [
        {
          "internalType": "bytes",
          "name": "",
          "type": "bytes"
        }
      ],
      "stateMutability": "view",
      "type": "function"
    },
    {
      "inputs": [],
      "name": "s_requestCounter",
      "outputs": [
        {
          "internalType": "uint256",
          "name": "",
          "type": "uint256"
        }
      ],
      "stateMutability": "view",
      "type": "function"
    },
    {
      "inputs": [],
      "name": "s_responseCounter",
      "outputs": [
        {
          "internalType": "uint256",
          "name": "",
          "type": "uint256"
        }
      ],
      "stateMutability": "view",
      "type": "function"
    },
    {
      "inputs": [],
      "name": "s_upkeepCounter",
      "outputs": [
        {
          "internalType": "uint256",
          "name": "",
          "type": "uint256"
        }
      ],
      "stateMutability": "view",
      "type": "function"
    },
    {
      "inputs": [],
      "name": "subscriptionId",
      "outputs": [
        {
          "internalType": "uint64",
          "name": "",
          "type": "uint64"
        }
      ],
      "stateMutability": "view",
      "type": "function"
    },
    {
      "inputs": [
        {
          "internalType": "address",
          "name": "to",
          "type": "address"
        }
      ],
      "name": "transferOwnership",
      "outputs": [],
      "stateMutability": "nonpayable",
      "type": "function"
    },
    {
      "inputs": [
        {
          "internalType": "bytes",
          "name": "_request",
          "type": "bytes"
        },
        {
          "internalType": "uint64",
          "name": "_subscriptionId",
          "type": "uint64"
        },
        {
          "internalType": "uint32",
          "name": "_gasLimit",
          "type": "uint32"
        },
        {
          "internalType": "bytes32",
          "name": "_donID",
          "type": "bytes32"
        }
      ],
      "name": "updateRequest",
      "outputs": [],
      "stateMutability": "nonpayable",
      "type": "function"
    }
  ],
  "bytecode": "0x60a060405234801561001057600080fd5b506040516110f73803806110f783398101604081905261002f91610174565b6001600160a01b03811660805233806000816100925760405162461bcd60e51b815260206004820152601860248201527f43616e6e6f7420736574206f776e657220746f207a65726f000000000000000060448201526064015b60405180910390fd5b600080546001600160a01b0319166001600160a01b03848116919091179091558116156100c2576100c2816100cb565b505050506101a4565b336001600160a01b038216036101235760405162461bcd60e51b815260206004820152601760248201527f43616e6e6f74207472616e7366657220746f2073656c660000000000000000006044820152606401610089565b600180546001600160a01b0319166001600160a01b0383811691821790925560008054604051929316917fed8889f560326eb138920d842192f0eb3dd22b4f139c87a2c57538e05bae12789190a350565b60006020828403121561018657600080fd5b81516001600160a01b038116811461019d57600080fd5b9392505050565b608051610f316101c6600039600081816102a4015261042b0152610f316000f3fe608060405234801561001057600080fd5b50600436106101365760003560e01c80636e04ff0d116100b2578063b1e2174911610081578063f2fde38b11610066578063f2fde38b1461024c578063f5c1279b1461025f578063f68016b71461026857600080fd5b8063b1e2174914610230578063c41c7dce1461023957600080fd5b80636e04ff0d146101e35780636e74336b1461020457806379ba50971461020d5780638da5cb5b1461021557600080fd5b80633944ea3a116101095780634585e33b116100ee5780634585e33b146101bf57806348802b92146101d25780634b0795a8146101db57600080fd5b80633944ea3a146101ae57806343cd3d86146101b657600080fd5b806309c1ba2e1461013b5780630ca761751461016d5780632552317c14610182578063338cdca114610199575b600080fd5b60045461014f9067ffffffffffffffff1681565b60405167ffffffffffffffff90911681526020015b60405180910390f35b61018061017b3660046109b6565b610299565b005b61018b60025481565b604051908152602001610164565b6101a1610336565b6040516101649190610a69565b6101a16103c4565b61018b600b5481565b6101806101cd366004610a83565b6103d1565b61018b600a5481565b6101a16105d4565b6101f66101f1366004610a83565b6105e1565b604051610164929190610af5565b61018b60055481565b610180610610565b6000546040516001600160a01b039091168152602001610164565b61018b60065481565b610180610247366004610b18565b6106d3565b61018061025a366004610b93565b61072d565b61018b60095481565b6004546102849068010000000000000000900463ffffffff1681565b60405163ffffffff9091168152602001610164565b336001600160a01b037f000000000000000000000000000000000000000000000000000000000000000016146102fb576040517fc6829f8300000000000000000000000000000000000000000000000000000000815260040160405180910390fd5b610306838383610741565b60405183907f85e1543bf2f84fe80c6badbce3648c8539ad1df4d2b3d822938ca0538be727e690600090a2505050565b6003805461034390610bbc565b80601f016020809104026020016040519081016040528092919081815260200182805461036f90610bbc565b80156103bc5780601f10610391576101008083540402835291602001916103bc565b820191906000526020600020905b81548152906001019060200180831161039f57829003601f168201915b505050505081565b6007805461034390610bbc565b6000600254436103e19190610c0c565b11156105d057436002556009546103f9906001610c25565b600955600480546005546040517f461d27620000000000000000000000000000000000000000000000000000000081527f00000000000000000000000000000000000000000000000000000000000000006001600160a01b03169363461d27629361048a9367ffffffffffffffff82169360039360019368010000000000000000900463ffffffff16929101610cb5565b6020604051808303816000875af19250505080156104c5575060408051601f3d908101601f191682019092526104c291810190610cff565b60015b61058d576104d1610d18565b806308c379a00361052c57506104e5610d34565b806104f0575061052e565b7f2ba61e3733e7ac99181c22307780f651ec8fd92fe661a84dfbe711710b2dc36c8160405161051f9190610a69565b60405180910390a1505050565b505b3d808015610558576040519150601f19603f3d011682016040523d82523d6000602084013e61055d565b606091505b507f9c4bfa18304482256875c29fabb1a44a5ecd325f214ea17bab8f31e869faf4c88160405161051f9190610a69565b6006819055600a546105a0906001610c25565b600a5560405181907f1131472297a800fee664d1d89cfa8f7676ff07189ecc53f80bbb5f4969099db890600090a2505b5050565b6008805461034390610bbc565b600060606000600254436105f59190610c0c565b60408051602081019091526000815291109590945092505050565b6001546001600160a01b0316331461066f5760405162461bcd60e51b815260206004820152601660248201527f4d7573742062652070726f706f736564206f776e65720000000000000000000060448201526064015b60405180910390fd5b600080543373ffffffffffffffffffffffffffffffffffffffff19808316821784556001805490911690556040516001600160a01b0390921692909183917f8be0079c531659141344cd1fd0a4f28419497f9722a3daafe3b4186f6b6457e091a350565b6106db6107ed565b60036106e78582610e0d565b506004805463ffffffff90931668010000000000000000026bffffffffffffffffffffffff1990931667ffffffffffffffff909416939093179190911790915560055550565b6107356107ed565b61073e81610849565b50565b826006541461077f576040517fd068bf5b00000000000000000000000000000000000000000000000000000000815260048101849052602401610666565b600761078b8382610e0d565b5060086107988282610e0d565b50600b546107a7906001610c25565b600b5560405183907f7873807bf6ddc50401cd3d29bbe0decee23fd4d68d273f4b5eb83cded4d2f172906107e090600790600890610ecd565b60405180910390a2505050565b6000546001600160a01b031633146108475760405162461bcd60e51b815260206004820152601660248201527f4f6e6c792063616c6c61626c65206279206f776e6572000000000000000000006044820152606401610666565b565b336001600160a01b038216036108a15760405162461bcd60e51b815260206004820152601760248201527f43616e6e6f74207472616e7366657220746f2073656c660000000000000000006044820152606401610666565b6001805473ffffffffffffffffffffffffffffffffffffffff19166001600160a01b0383811691821790925560008054604051929316917fed8889f560326eb138920d842192f0eb3dd22b4f139c87a2c57538e05bae12789190a350565b634e487b7160e01b600052604160045260246000fd5b601f8201601f1916810167ffffffffffffffff8111828210171561093b5761093b6108ff565b6040525050565b600082601f83011261095357600080fd5b813567ffffffffffffffff81111561096d5761096d6108ff565b604051610984601f8301601f191660200182610915565b81815284602083860101111561099957600080fd5b816020850160208301376000918101602001919091529392505050565b6000806000606084860312156109cb57600080fd5b83359250602084013567ffffffffffffffff808211156109ea57600080fd5b6109f687838801610942565b93506040860135915080821115610a0c57600080fd5b50610a1986828701610942565b9150509250925092565b6000815180845260005b81811015610a4957602081850181015186830182015201610a2d565b506000602082860101526020601f19601f83011685010191505092915050565b602081526000610a7c6020830184610a23565b9392505050565b60008060208385031215610a9657600080fd5b823567ffffffffffffffff80821115610aae57600080fd5b818501915085601f830112610ac257600080fd5b813581811115610ad157600080fd5b866020828501011115610ae357600080fd5b60209290920196919550909350505050565b8215158152604060208201526000610b106040830184610a23565b949350505050565b60008060008060808587031215610b2e57600080fd5b843567ffffffffffffffff80821115610b4657600080fd5b610b5288838901610942565b9550602087013591508082168214610b6957600080fd5b509250604085013563ffffffff81168114610b8357600080fd5b9396929550929360600135925050565b600060208284031215610ba557600080fd5b81356001600160a01b0381168114610a7c57600080fd5b600181811c90821680610bd057607f821691505b602082108103610bf057634e487b7160e01b600052602260045260246000fd5b50919050565b634e487b7160e01b600052601160045260246000fd5b81810381811115610c1f57610c1f610bf6565b92915050565b80820180821115610c1f57610c1f610bf6565b60008154610c4581610bbc565b808552602060018381168015610c625760018114610c7c57610caa565b60ff1985168884015283151560051b880183019550610caa565b866000528260002060005b85811015610ca25781548a8201860152908301908401610c87565b890184019650505b505050505092915050565b67ffffffffffffffff8616815260a060208201526000610cd860a0830187610c38565b61ffff9590951660408301525063ffffffff92909216606083015260809091015292915050565b600060208284031215610d1157600080fd5b5051919050565b600060033d1115610d315760046000803e5060005160e01c5b90565b600060443d1015610d425790565b6040516003193d81016004833e81513d67ffffffffffffffff8160248401118184111715610d7257505050505090565b8285019150815181811115610d8a5750505050505090565b843d8701016020828501011115610da45750505050505090565b610db360208286010187610915565b509095945050505050565b601f821115610e0857600081815260208120601f850160051c81016020861015610de55750805b601f850160051c820191505b81811015610e0457828155600101610df1565b5050505b505050565b815167ffffffffffffffff811115610e2757610e276108ff565b610e3b81610e358454610bbc565b84610dbe565b602080601f831160018114610e705760008415610e585750858301515b600019600386901b1c1916600185901b178555610e04565b600085815260208120601f198616915b82811015610e9f57888601518255948401946001909101908401610e80565b5085821015610ebd5787850151600019600388901b60f8161c191681555b5050505050600190811b01905550565b604081526000610ee06040830185610c38565b8281036020840152610ef28185610c38565b9594505050505056fea2646970667358221220a47e2663f3413e08369585f136286d1663eeb4926f723e392f962876c8c5990664736f6c63430008130033",
  "linkReferences": {},
  "deployedLinkReferences": {}
}