{
  "_format": "hh-sol-artifact-1",
  "contractName": "FunctionsConsumerExample",
  "sourceName": "contracts/FunctionsConsumerExample .sol",
  "abi": [
    {
      "inputs": [
        {
          "internalType": "address",
          "name": "router",
          "type": "address"
        }
      ],
      "stateMutability": "nonpayable",
      "type": "constructor"
    },
    {
      "inputs": [],
      "name": "EmptyArgs",
      "type": "error"
    },
    {
      "inputs": [],
      "name": "EmptySecrets",
      "type": "error"
    },
    {
      "inputs": [],
      "name": "EmptySource",
      "type": "error"
    },
    {
      "inputs": [],
      "name": "NoInlineSecrets",
      "type": "error"
    },
    {
      "inputs": [],
      "name": "OnlyRouterCanFulfill",
      "type": "error"
    },
    {
      "inputs": [
        {
          "internalType": "bytes32",
          "name": "requestId",
          "type": "bytes32"
        }
      ],
      "name": "UnexpectedRequestID",
      "type": "error"
    },
    {
      "anonymous": false,
      "inputs": [
        {
          "indexed": true,
          "internalType": "address",
          "name": "from",
          "type": "address"
        },
        {
          "indexed": true,
          "internalType": "address",
          "name": "to",
          "type": "address"
        }
      ],
      "name": "OwnershipTransferRequested",
      "type": "event"
    },
    {
      "anonymous": false,
      "inputs": [
        {
          "indexed": true,
          "internalType": "address",
          "name": "from",
          "type": "address"
        },
        {
          "indexed": true,
          "internalType": "address",
          "name": "to",
          "type": "address"
        }
      ],
      "name": "OwnershipTransferred",
      "type": "event"
    },
    {
      "anonymous": false,
      "inputs": [
        {
          "indexed": true,
          "internalType": "bytes32",
          "name": "id",
          "type": "bytes32"
        }
      ],
      "name": "RequestFulfilled",
      "type": "event"
    },
    {
      "anonymous": false,
      "inputs": [
        {
          "indexed": true,
          "internalType": "bytes32",
          "name": "id",
          "type": "bytes32"
        }
      ],
      "name": "RequestSent",
      "type": "event"
    },
    {
      "anonymous": false,
      "inputs": [
        {
          "indexed": true,
          "internalType": "bytes32",
          "name": "requestId",
          "type": "bytes32"
        },
        {
          "indexed": false,
          "internalType": "bytes",
          "name": "response",
          "type": "bytes"
        },
        {
          "indexed": false,
          "internalType": "bytes",
          "name": "err",
          "type": "bytes"
        }
      ],
      "name": "Response",
      "type": "event"
    },
    {
      "inputs": [],
      "name": "acceptOwnership",
      "outputs": [],
      "stateMutability": "nonpayable",
      "type": "function"
    },
    {
      "inputs": [
        {
          "internalType": "bytes32",
          "name": "requestId",
          "type": "bytes32"
        },
        {
          "internalType": "bytes",
          "name": "response",
          "type": "bytes"
        },
        {
          "internalType": "bytes",
          "name": "err",
          "type": "bytes"
        }
      ],
      "name": "handleOracleFulfillment",
      "outputs": [],
      "stateMutability": "nonpayable",
      "type": "function"
    },
    {
      "inputs": [],
      "name": "owner",
      "outputs": [
        {
          "internalType": "address",
          "name": "",
          "type": "address"
        }
      ],
      "stateMutability": "view",
      "type": "function"
    },
    {
      "inputs": [],
      "name": "s_lastError",
      "outputs": [
        {
          "internalType": "bytes",
          "name": "",
          "type": "bytes"
        }
      ],
      "stateMutability": "view",
      "type": "function"
    },
    {
      "inputs": [],
      "name": "s_lastRequestId",
      "outputs": [
        {
          "internalType": "bytes32",
          "name": "",
          "type": "bytes32"
        }
      ],
      "stateMutability": "view",
      "type": "function"
    },
    {
      "inputs": [],
      "name": "s_lastResponse",
      "outputs": [
        {
          "internalType": "bytes",
          "name": "",
          "type": "bytes"
        }
      ],
      "stateMutability": "view",
      "type": "function"
    },
    {
      "inputs": [
        {
          "internalType": "string",
          "name": "source",
          "type": "string"
        },
        {
          "internalType": "bytes",
          "name": "encryptedSecretsUrls",
          "type": "bytes"
        },
        {
          "internalType": "uint8",
          "name": "donHostedSecretsSlotID",
          "type": "uint8"
        },
        {
          "internalType": "uint64",
          "name": "donHostedSecretsVersion",
          "type": "uint64"
        },
        {
          "internalType": "string[]",
          "name": "args",
          "type": "string[]"
        },
        {
          "internalType": "bytes[]",
          "name": "bytesArgs",
          "type": "bytes[]"
        },
        {
          "internalType": "uint64",
          "name": "subscriptionId",
          "type": "uint64"
        },
        {
          "internalType": "uint32",
          "name": "gasLimit",
          "type": "uint32"
        },
        {
          "internalType": "bytes32",
          "name": "donID",
          "type": "bytes32"
        }
      ],
      "name": "sendRequest",
      "outputs": [
        {
          "internalType": "bytes32",
          "name": "requestId",
          "type": "bytes32"
        }
      ],
      "stateMutability": "nonpayable",
      "type": "function"
    },
    {
      "inputs": [
        {
          "internalType": "bytes",
          "name": "request",
          "type": "bytes"
        },
        {
          "internalType": "uint64",
          "name": "subscriptionId",
          "type": "uint64"
        },
        {
          "internalType": "uint32",
          "name": "gasLimit",
          "type": "uint32"
        },
        {
          "internalType": "bytes32",
          "name": "donID",
          "type": "bytes32"
        }
      ],
      "name": "sendRequestCBOR",
      "outputs": [
        {
          "internalType": "bytes32",
          "name": "requestId",
          "type": "bytes32"
        }
      ],
      "stateMutability": "nonpayable",
      "type": "function"
    },
    {
      "inputs": [
        {
          "internalType": "address",
          "name": "to",
          "type": "address"
        }
      ],
      "name": "transferOwnership",
      "outputs": [],
      "stateMutability": "nonpayable",
      "type": "function"
    }
  ],
  "bytecode": "0x60a06040523480156200001157600080fd5b5060405162001ba338038062001ba3833981016040819052620000349162000180565b6001600160a01b0381166080523380600081620000985760405162461bcd60e51b815260206004820152601860248201527f43616e6e6f7420736574206f776e657220746f207a65726f000000000000000060448201526064015b60405180910390fd5b600080546001600160a01b0319166001600160a01b0384811691909117909155811615620000cb57620000cb81620000d5565b50505050620001b2565b336001600160a01b038216036200012f5760405162461bcd60e51b815260206004820152601760248201527f43616e6e6f74207472616e7366657220746f2073656c6600000000000000000060448201526064016200008f565b600180546001600160a01b0319166001600160a01b0383811691821790925560008054604051929316917fed8889f560326eb138920d842192f0eb3dd22b4f139c87a2c57538e05bae12789190a350565b6000602082840312156200019357600080fd5b81516001600160a01b0381168114620001ab57600080fd5b9392505050565b6080516119ce620001d5600039600081816101610152610a4401526119ce6000f3fe608060405234801561001057600080fd5b50600436106100a35760003560e01c806379ba5097116100765780639681096f1161005b5780639681096f14610127578063b1e217491461013a578063f2fde38b1461014357600080fd5b806379ba5097146101045780638da5cb5b1461010c57600080fd5b80630ca76175146100a85780633944ea3a146100bd5780634b0795a8146100db57806352a81eeb146100e3575b600080fd5b6100bb6100b63660046111d3565b610156565b005b6100c56101f3565b6040516100d29190611286565b60405180910390f35b6100c5610281565b6100f66100f136600461140f565b61028e565b6040519081526020016100d2565b6100bb61035e565b6000546040516001600160a01b0390911681526020016100d2565b6100f6610135366004611509565b610421565b6100f660025481565b6100bb61015136600461156f565b610445565b336001600160a01b037f000000000000000000000000000000000000000000000000000000000000000016146101b8576040517fc6829f8300000000000000000000000000000000000000000000000000000000815260040160405180910390fd5b6101c3838383610459565b60405183907f85e1543bf2f84fe80c6badbce3648c8539ad1df4d2b3d822938ca0538be727e690600090a2505050565b6003805461020090611598565b80601f016020809104026020016040519081016040528092919081815260200182805461022c90611598565b80156102795780601f1061024e57610100808354040283529160200191610279565b820191906000526020600020905b81548152906001019060200180831161025c57829003601f168201915b505050505081565b6004805461020090611598565b60006102986104f2565b6102d96040805160e0810190915280600081526020016000815260200160008152602001606081526020016060815260200160608152602001606081525090565b6102e3818c61054e565b8951156102f9576102f4818b61055f565b610314565b67ffffffffffffffff88161561031457610314818a8a6105a9565b86511561032557610325818861066c565b855115610336576103368187610696565b61034a610342826106c0565b868686610a3f565b60028190559b9a5050505050505050505050565b6001546001600160a01b031633146103bd5760405162461bcd60e51b815260206004820152601660248201527f4d7573742062652070726f706f736564206f776e65720000000000000000000060448201526064015b60405180910390fd5b600080543373ffffffffffffffffffffffffffffffffffffffff19808316821784556001805490911690556040516001600160a01b0390921692909183917f8be0079c531659141344cd1fd0a4f28419497f9722a3daafe3b4186f6b6457e091a350565b600061042b6104f2565b61043785858585610a3f565b600281905595945050505050565b61044d6104f2565b61045681610b11565b50565b8260025414610497576040517fd068bf5b000000000000000000000000000000000000000000000000000000008152600481018490526024016103b4565b60036104a38382611620565b5060046104b08282611620565b50827f7873807bf6ddc50401cd3d29bbe0decee23fd4d68d273f4b5eb83cded4d2f172600360046040516104e592919061175d565b60405180910390a2505050565b6000546001600160a01b0316331461054c5760405162461bcd60e51b815260206004820152601660248201527f4f6e6c792063616c6c61626c65206279206f776e65720000000000000000000060448201526064016103b4565b565b61055b8260008084610bc7565b5050565b805160000361059a576040517fe889636f00000000000000000000000000000000000000000000000000000000815260040160405180910390fd5b60016020830152608090910152565b60006105b6610100610c5e565b90506106006040518060400160405280600681526020017f736c6f744944000000000000000000000000000000000000000000000000000081525082610c7f90919063ffffffff16565b61060d8160ff8516610c9d565b60408051808201909152600781527f76657273696f6e00000000000000000000000000000000000000000000000000602082015261064c908290610c7f565b6106568183610c9d565b6002602085015251516080909301929092525050565b805160000361068e5760405163fe936cb760e01b815260040160405180910390fd5b60a090910152565b80516000036106b85760405163fe936cb760e01b815260040160405180910390fd5b60c090910152565b606060006106cf610100610c5e565b90506107196040518060400160405280600c81526020017f636f64654c6f636174696f6e000000000000000000000000000000000000000081525082610c7f90919063ffffffff16565b82516107379060028111156107305761073061178b565b8290610ca9565b60408051808201909152600881527f6c616e67756167650000000000000000000000000000000000000000000000006020820152610776908290610c7f565b604083015161078d9080156107305761073061178b565b60408051808201909152600681527f736f75726365000000000000000000000000000000000000000000000000000060208201526107cc908290610c7f565b60608301516107dc908290610c7f565b60a083015151156108895760408051808201909152600481527f61726773000000000000000000000000000000000000000000000000000000006020820152610826908290610c7f565b61082f81610ce2565b60005b8360a001515181101561087f5761086f8460a001518281518110610858576108586117a1565b602002602001015183610c7f90919063ffffffff16565b610878816117cd565b9050610832565b5061088981610d06565b6080830151511561098a576000836020015160028111156108ac576108ac61178b565b036108e3576040517fa80d31f700000000000000000000000000000000000000000000000000000000815260040160405180910390fd5b60408051808201909152600f81527f736563726574734c6f636174696f6e00000000000000000000000000000000006020820152610922908290610c7f565b61093b836020015160028111156107305761073061178b565b60408051808201909152600781527f7365637265747300000000000000000000000000000000000000000000000000602082015261097a908290610c7f565b608083015161098a908290610d24565b60c08301515115610a375760408051808201909152600981527f627974657341726773000000000000000000000000000000000000000000000060208201526109d4908290610c7f565b6109dd81610ce2565b60005b8360c0015151811015610a2d57610a1d8460c001518281518110610a0657610a066117a1565b602002602001015183610d2490919063ffffffff16565b610a26816117cd565b90506109e0565b50610a3781610d06565b515192915050565b6000807f00000000000000000000000000000000000000000000000000000000000000006001600160a01b031663461d27628688600188886040518663ffffffff1660e01b8152600401610a979594939291906117e6565b6020604051808303816000875af1158015610ab6573d6000803e3d6000fd5b505050506040513d601f19601f82011682018060405250810190610ada9190611830565b60405190915081907f1131472297a800fee664d1d89cfa8f7676ff07189ecc53f80bbb5f4969099db890600090a295945050505050565b336001600160a01b03821603610b695760405162461bcd60e51b815260206004820152601760248201527f43616e6e6f74207472616e7366657220746f2073656c6600000000000000000060448201526064016103b4565b6001805473ffffffffffffffffffffffffffffffffffffffff19166001600160a01b0383811691821790925560008054604051929316917fed8889f560326eb138920d842192f0eb3dd22b4f139c87a2c57538e05bae12789190a350565b8051600003610c02576040517f22ce3edd00000000000000000000000000000000000000000000000000000000815260040160405180910390fd5b83836002811115610c1557610c1561178b565b90816002811115610c2857610c2861178b565b90525060408401828015610c3e57610c3e61178b565b90818015610c4e57610c4e61178b565b9052506060909301929092525050565b610c666110e7565b8051610c729083610d31565b5060006020820152919050565b610c8c8260038351610dab565b8151610c989082610ed2565b505050565b61055b82600083610dab565b8151610cb69060c2610efa565b5061055b8282604051602001610cce91815260200190565b604051602081830303815290604052610d24565b610ced816004610f63565b600181602001818151610d009190611849565b90525050565b610d11816007610f63565b600181602001818151610d00919061185c565b610c8c8260028351610dab565b604080518082019091526060815260006020820152610d5160208361186f565b15610d7957610d6160208361186f565b610d6c90602061185c565b610d769083611849565b91505b602080840183905260405180855260008152908184010181811015610d9d57600080fd5b604052508290505b92915050565b60178167ffffffffffffffff1611610dd8578251610dd29060e0600585901b168317610efa565b50505050565b60ff8167ffffffffffffffff1611610e1a578251610e01906018611fe0600586901b1617610efa565b508251610dd29067ffffffffffffffff83166001610f7a565b61ffff8167ffffffffffffffff1611610e5d578251610e44906019611fe0600586901b1617610efa565b508251610dd29067ffffffffffffffff83166002610f7a565b63ffffffff8167ffffffffffffffff1611610ea2578251610e8990601a611fe0600586901b1617610efa565b508251610dd29067ffffffffffffffff83166004610f7a565b8251610eb990601b611fe0600586901b1617610efa565b508251610dd29067ffffffffffffffff83166008610f7a565b604080518082019091526060815260006020820152610ef383838451610fff565b9392505050565b6040805180820190915260608152600060208201528251516000610f1f826001611849565b905084602001518210610f4057610f4085610f3b836002611891565b6110d0565b8451602083820101858153508051821115610f59578181525b5093949350505050565b8151610c9890601f611fe0600585901b1617610efa565b6040805180820190915260608152600060208201528351516000610f9e8285611849565b90508560200151811115610fbb57610fbb86610f3b836002611891565b60006001610fcb8661010061198c565b610fd5919061185c565b90508651828101878319825116178152508051831115610ff3578281525b50959695505050505050565b604080518082019091526060815260006020820152825182111561102257600080fd5b83515160006110318483611849565b9050856020015181111561104e5761104e86610f3b836002611891565b855180518382016020019160009180851115611068578482525b505050602086015b602086106110a85780518252611087602083611849565b9150611094602082611849565b90506110a160208761185c565b9550611070565b51815160001960208890036101000a0190811690199190911617905250849150509392505050565b81516110dc8383610d31565b50610dd28382610ed2565b604051806040016040528061110f604051806040016040528060608152602001600081525090565b8152602001600081525090565b634e487b7160e01b600052604160045260246000fd5b604051601f8201601f1916810167ffffffffffffffff8111828210171561115b5761115b61111c565b604052919050565b600082601f83011261117457600080fd5b813567ffffffffffffffff81111561118e5761118e61111c565b6111a1601f8201601f1916602001611132565b8181528460208386010111156111b657600080fd5b816020850160208301376000918101602001919091529392505050565b6000806000606084860312156111e857600080fd5b83359250602084013567ffffffffffffffff8082111561120757600080fd5b61121387838801611163565b9350604086013591508082111561122957600080fd5b5061123686828701611163565b9150509250925092565b6000815180845260005b818110156112665760208185018101518683018201520161124a565b506000602082860101526020601f19601f83011685010191505092915050565b602081526000610ef36020830184611240565b803560ff811681146112aa57600080fd5b919050565b803567ffffffffffffffff811681146112aa57600080fd5b600067ffffffffffffffff8211156112e1576112e161111c565b5060051b60200190565b600082601f8301126112fc57600080fd5b8135602061131161130c836112c7565b611132565b82815260059290921b8401810191818101908684111561133057600080fd5b8286015b8481101561137057803567ffffffffffffffff8111156113545760008081fd5b6113628986838b0101611163565b845250918301918301611334565b509695505050505050565b600082601f83011261138c57600080fd5b8135602061139c61130c836112c7565b82815260059290921b840181019181810190868411156113bb57600080fd5b8286015b8481101561137057803567ffffffffffffffff8111156113df5760008081fd5b6113ed8986838b0101611163565b8452509183019183016113bf565b803563ffffffff811681146112aa57600080fd5b60008060008060008060008060006101208a8c03121561142e57600080fd5b893567ffffffffffffffff8082111561144657600080fd5b6114528d838e01611163565b9a5060208c013591508082111561146857600080fd5b6114748d838e01611163565b995061148260408d01611299565b985061149060608d016112af565b975060808c01359150808211156114a657600080fd5b6114b28d838e016112eb565b965060a08c01359150808211156114c857600080fd5b506114d58c828d0161137b565b9450506114e460c08b016112af565b92506114f260e08b016113fb565b91506101008a013590509295985092959850929598565b6000806000806080858703121561151f57600080fd5b843567ffffffffffffffff81111561153657600080fd5b61154287828801611163565b945050611551602086016112af565b925061155f604086016113fb565b9396929550929360600135925050565b60006020828403121561158157600080fd5b81356001600160a01b0381168114610ef357600080fd5b600181811c908216806115ac57607f821691505b6020821081036115cc57634e487b7160e01b600052602260045260246000fd5b50919050565b601f821115610c9857600081815260208120601f850160051c810160208610156115f95750805b601f850160051c820191505b8181101561161857828155600101611605565b505050505050565b815167ffffffffffffffff81111561163a5761163a61111c565b61164e816116488454611598565b846115d2565b602080601f831160018114611683576000841561166b5750858301515b600019600386901b1c1916600185901b178555611618565b600085815260208120601f198616915b828110156116b257888601518255948401946001909101908401611693565b50858210156116d05787850151600019600388901b60f8161c191681555b5050505050600190811b01905550565b600081546116ed81611598565b80855260206001838116801561170a576001811461172457611752565b60ff1985168884015283151560051b880183019550611752565b866000528260002060005b8581101561174a5781548a820186015290830190840161172f565b890184019650505b505050505092915050565b60408152600061177060408301856116e0565b828103602084015261178281856116e0565b95945050505050565b634e487b7160e01b600052602160045260246000fd5b634e487b7160e01b600052603260045260246000fd5b634e487b7160e01b600052601160045260246000fd5b6000600182016117df576117df6117b7565b5060010190565b67ffffffffffffffff8616815260a06020820152600061180960a0830187611240565b61ffff9590951660408301525063ffffffff92909216606083015260809091015292915050565b60006020828403121561184257600080fd5b5051919050565b80820180821115610da557610da56117b7565b81810381811115610da557610da56117b7565b60008261188c57634e487b7160e01b600052601260045260246000fd5b500690565b8082028115828204841417610da557610da56117b7565b600181815b808511156118e35781600019048211156118c9576118c96117b7565b808516156118d657918102915b93841c93908002906118ad565b509250929050565b6000826118fa57506001610da5565b8161190757506000610da5565b816001811461191d576002811461192757611943565b6001915050610da5565b60ff841115611938576119386117b7565b50506001821b610da5565b5060208310610133831016604e8410600b8410161715611966575081810a610da5565b61197083836118a8565b8060001904821115611984576119846117b7565b029392505050565b6000610ef383836118eb56fea264697066735822122063a106a7f42b3ad5d2bfaa234fbc128f908c0e35b56dfe2d22bcf7cb7832774a64736f6c63430008130033",
  "linkReferences": {},
  "deployedLinkReferences": {}
}