{
  "_format": "hh-sol-artifact-1",
  "contractName": "GettingStartedFunctionsConsumer",
  "sourceName": "contracts/GettingStartedFunctionsConsumer.sol",
  "abi": [
    {
      "inputs": [],
      "stateMutability": "nonpayable",
      "type": "constructor"
    },
    {
      "inputs": [],
      "name": "EmptyArgs",
      "type": "error"
    },
    {
      "inputs": [],
      "name": "EmptySource",
      "type": "error"
    },
    {
      "inputs": [],
      "name": "NoInlineSecrets",
      "type": "error"
    },
    {
      "inputs": [],
      "name": "OnlyRouterCanFulfill",
      "type": "error"
    },
    {
      "inputs": [
        {
          "internalType": "bytes32",
          "name": "requestId",
          "type": "bytes32"
        }
      ],
      "name": "UnexpectedRequestID",
      "type": "error"
    },
    {
      "anonymous": false,
      "inputs": [
        {
          "indexed": true,
          "internalType": "address",
          "name": "from",
          "type": "address"
        },
        {
          "indexed": true,
          "internalType": "address",
          "name": "to",
          "type": "address"
        }
      ],
      "name": "OwnershipTransferRequested",
      "type": "event"
    },
    {
      "anonymous": false,
      "inputs": [
        {
          "indexed": true,
          "internalType": "address",
          "name": "from",
          "type": "address"
        },
        {
          "indexed": true,
          "internalType": "address",
          "name": "to",
          "type": "address"
        }
      ],
      "name": "OwnershipTransferred",
      "type": "event"
    },
    {
      "anonymous": false,
      "inputs": [
        {
          "indexed": true,
          "internalType": "bytes32",
          "name": "id",
          "type": "bytes32"
        }
      ],
      "name": "RequestFulfilled",
      "type": "event"
    },
    {
      "anonymous": false,
      "inputs": [
        {
          "indexed": true,
          "internalType": "bytes32",
          "name": "id",
          "type": "bytes32"
        }
      ],
      "name": "RequestSent",
      "type": "event"
    },
    {
      "anonymous": false,
      "inputs": [
        {
          "indexed": true,
          "internalType": "bytes32",
          "name": "requestId",
          "type": "bytes32"
        },
        {
          "indexed": false,
          "internalType": "string",
          "name": "character",
          "type": "string"
        },
        {
          "indexed": false,
          "internalType": "bytes",
          "name": "response",
          "type": "bytes"
        },
        {
          "indexed": false,
          "internalType": "bytes",
          "name": "err",
          "type": "bytes"
        }
      ],
      "name": "Response",
      "type": "event"
    },
    {
      "inputs": [],
      "name": "acceptOwnership",
      "outputs": [],
      "stateMutability": "nonpayable",
      "type": "function"
    },
    {
      "inputs": [],
      "name": "character",
      "outputs": [
        {
          "internalType": "string",
          "name": "",
          "type": "string"
        }
      ],
      "stateMutability": "view",
      "type": "function"
    },
    {
      "inputs": [
        {
          "internalType": "bytes32",
          "name": "requestId",
          "type": "bytes32"
        },
        {
          "internalType": "bytes",
          "name": "response",
          "type": "bytes"
        },
        {
          "internalType": "bytes",
          "name": "err",
          "type": "bytes"
        }
      ],
      "name": "handleOracleFulfillment",
      "outputs": [],
      "stateMutability": "nonpayable",
      "type": "function"
    },
    {
      "inputs": [],
      "name": "owner",
      "outputs": [
        {
          "internalType": "address",
          "name": "",
          "type": "address"
        }
      ],
      "stateMutability": "view",
      "type": "function"
    },
    {
      "inputs": [],
      "name": "s_lastError",
      "outputs": [
        {
          "internalType": "bytes",
          "name": "",
          "type": "bytes"
        }
      ],
      "stateMutability": "view",
      "type": "function"
    },
    {
      "inputs": [],
      "name": "s_lastRequestId",
      "outputs": [
        {
          "internalType": "bytes32",
          "name": "",
          "type": "bytes32"
        }
      ],
      "stateMutability": "view",
      "type": "function"
    },
    {
      "inputs": [],
      "name": "s_lastResponse",
      "outputs": [
        {
          "internalType": "bytes",
          "name": "",
          "type": "bytes"
        }
      ],
      "stateMutability": "view",
      "type": "function"
    },
    {
      "inputs": [
        {
          "internalType": "uint64",
          "name": "subscriptionId",
          "type": "uint64"
        },
        {
          "internalType": "string[]",
          "name": "args",
          "type": "string[]"
        }
      ],
      "name": "sendRequest",
      "outputs": [
        {
          "internalType": "bytes32",
          "name": "requestId",
          "type": "bytes32"
        }
      ],
      "stateMutability": "nonpayable",
      "type": "function"
    },
    {
      "inputs": [
        {
          "internalType": "address",
          "name": "to",
          "type": "address"
        }
      ],
      "name": "transferOwnership",
      "outputs": [],
      "stateMutability": "nonpayable",
      "type": "function"
    }
  ],
  "bytecode": "0x600580546001600160a01b031916736e2dc0f9db014ae19888f539e59285d2ea04244c1790556101e060405261010460a08181529062001a9060c0396006906200004a908262000281565b506007805463ffffffff1916620493e01790557f66756e2d706f6c79676f6e2d6d756d6261692d310000000000000000000000006008553480156200008e57600080fd5b506005546001600160a01b03166080523380600081620000f55760405162461bcd60e51b815260206004820152601860248201527f43616e6e6f7420736574206f776e657220746f207a65726f000000000000000060448201526064015b60405180910390fd5b600080546001600160a01b0319166001600160a01b03848116919091179091558116156200012857620001288162000131565b5050506200034d565b336001600160a01b038216036200018b5760405162461bcd60e51b815260206004820152601760248201527f43616e6e6f74207472616e7366657220746f2073656c660000000000000000006044820152606401620000ec565b600180546001600160a01b0319166001600160a01b0383811691821790925560008054604051929316917fed8889f560326eb138920d842192f0eb3dd22b4f139c87a2c57538e05bae12789190a350565b634e487b7160e01b600052604160045260246000fd5b600181811c908216806200020757607f821691505b6020821081036200022857634e487b7160e01b600052602260045260246000fd5b50919050565b601f8211156200027c57600081815260208120601f850160051c81016020861015620002575750805b601f850160051c820191505b81811015620002785782815560010162000263565b5050505b505050565b81516001600160401b038111156200029d576200029d620001dc565b620002b581620002ae8454620001f2565b846200022e565b602080601f831160018114620002ed5760008415620002d45750858301515b600019600386901b1c1916600185901b17855562000278565b600085815260208120601f198616915b828110156200031e57888601518255948401946001909101908401620002fd565b50858210156200033d5787850151600019600388901b60f8161c191681555b5050505050600190811b01905550565b6080516117206200037060003960008181610156015261096c01526117206000f3fe608060405234801561001057600080fd5b50600436106100a35760003560e01c80634d2e03a0116100765780638da5cb5b1161005b5780638da5cb5b14610114578063b1e217491461012f578063f2fde38b1461013857600080fd5b80634d2e03a01461010457806379ba50971461010c57600080fd5b80630ca76175146100a85780633944ea3a146100bd57806348a7d26d146100db5780634b0795a8146100fc575b600080fd5b6100bb6100b63660046110f4565b61014b565b005b6100c56101e8565b6040516100d291906111a7565b60405180910390f35b6100ee6100e93660046111ba565b610276565b6040519081526020016100d2565b6100c561039e565b6100c56103ab565b6100bb6103b8565b6000546040516001600160a01b0390911681526020016100d2565b6100ee60025481565b6100bb6101463660046112ac565b61047b565b336001600160a01b037f000000000000000000000000000000000000000000000000000000000000000016146101ad576040517fc6829f8300000000000000000000000000000000000000000000000000000000815260040160405180910390fd5b6101b883838361048f565b60405183907f85e1543bf2f84fe80c6badbce3648c8539ad1df4d2b3d822938ca0538be727e690600090a2505050565b600380546101f5906112d5565b80601f0160208091040260200160405190810160405280929190818152602001828054610221906112d5565b801561026e5780601f106102435761010080835404028352916020019161026e565b820191906000526020600020905b81548152906001019060200180831161025157829003601f168201915b505050505081565b6000610280610538565b6102c16040805160e0810190915280600081526020016000815260200160008152602001606081526020016060815260200160608152602001606081525090565b61035e600680546102d1906112d5565b80601f01602080910402602001604051908101604052809291908181526020018280546102fd906112d5565b801561034a5780601f1061031f5761010080835404028352916020019161034a565b820191906000526020600020905b81548152906001019060200180831161032d57829003601f168201915b50505050508261059490919063ffffffff16565b82511561036f5761036f81846105a5565b61038f61037b826105e8565b600754600854879163ffffffff1690610967565b60028190559150505b92915050565b600480546101f5906112d5565b600980546101f5906112d5565b6001546001600160a01b031633146104175760405162461bcd60e51b815260206004820152601660248201527f4d7573742062652070726f706f736564206f776e65720000000000000000000060448201526064015b60405180910390fd5b600080543373ffffffffffffffffffffffffffffffffffffffff19808316821784556001805490911690556040516001600160a01b0390921692909183917f8be0079c531659141344cd1fd0a4f28419497f9722a3daafe3b4186f6b6457e091a350565b610483610538565b61048c81610a39565b50565b82600254146104cd576040517fd068bf5b0000000000000000000000000000000000000000000000000000000081526004810184905260240161040e565b60036104d9838261135d565b5060096104e6838261135d565b5060046104f3828261135d565b50827f160ed0aaffbef6885155188b91459cb5a97d5daadccf7561d8c46deea6641b5060096003600460405161052b9392919061149a565b60405180910390a2505050565b6000546001600160a01b031633146105925760405162461bcd60e51b815260206004820152601660248201527f4f6e6c792063616c6c61626c65206279206f776e657200000000000000000000604482015260640161040e565b565b6105a18260008084610aef565b5050565b80516000036105e0576040517ffe936cb700000000000000000000000000000000000000000000000000000000815260040160405180910390fd5b60a090910152565b606060006105f7610100610b86565b90506106416040518060400160405280600c81526020017f636f64654c6f636174696f6e000000000000000000000000000000000000000081525082610ba790919063ffffffff16565b825161065f906002811115610658576106586114dd565b8290610bc5565b60408051808201909152600881527f6c616e6775616765000000000000000000000000000000000000000000000000602082015261069e908290610ba7565b60408301516106b5908015610658576106586114dd565b60408051808201909152600681527f736f75726365000000000000000000000000000000000000000000000000000060208201526106f4908290610ba7565b6060830151610704908290610ba7565b60a083015151156107b15760408051808201909152600481527f6172677300000000000000000000000000000000000000000000000000000000602082015261074e908290610ba7565b61075781610bfe565b60005b8360a00151518110156107a7576107978460a001518281518110610780576107806114f3565b602002602001015183610ba790919063ffffffff16565b6107a08161151f565b905061075a565b506107b181610c22565b608083015151156108b2576000836020015160028111156107d4576107d46114dd565b0361080b576040517fa80d31f700000000000000000000000000000000000000000000000000000000815260040160405180910390fd5b60408051808201909152600f81527f736563726574734c6f636174696f6e0000000000000000000000000000000000602082015261084a908290610ba7565b61086383602001516002811115610658576106586114dd565b60408051808201909152600781527f736563726574730000000000000000000000000000000000000000000000000060208201526108a2908290610ba7565b60808301516108b2908290610c40565b60c0830151511561095f5760408051808201909152600981527f627974657341726773000000000000000000000000000000000000000000000060208201526108fc908290610ba7565b61090581610bfe565b60005b8360c0015151811015610955576109458460c00151828151811061092e5761092e6114f3565b602002602001015183610c4090919063ffffffff16565b61094e8161151f565b9050610908565b5061095f81610c22565b515192915050565b6000807f00000000000000000000000000000000000000000000000000000000000000006001600160a01b031663461d27628688600188886040518663ffffffff1660e01b81526004016109bf959493929190611538565b6020604051808303816000875af11580156109de573d6000803e3d6000fd5b505050506040513d601f19601f82011682018060405250810190610a029190611582565b60405190915081907f1131472297a800fee664d1d89cfa8f7676ff07189ecc53f80bbb5f4969099db890600090a295945050505050565b336001600160a01b03821603610a915760405162461bcd60e51b815260206004820152601760248201527f43616e6e6f74207472616e7366657220746f2073656c66000000000000000000604482015260640161040e565b6001805473ffffffffffffffffffffffffffffffffffffffff19166001600160a01b0383811691821790925560008054604051929316917fed8889f560326eb138920d842192f0eb3dd22b4f139c87a2c57538e05bae12789190a350565b8051600003610b2a576040517f22ce3edd00000000000000000000000000000000000000000000000000000000815260040160405180910390fd5b83836002811115610b3d57610b3d6114dd565b90816002811115610b5057610b506114dd565b90525060408401828015610b6657610b666114dd565b90818015610b7657610b766114dd565b9052506060909301929092525050565b610b8e611000565b8051610b9a9083610c4d565b5060006020820152919050565b610bb48260038351610cc4565b8151610bc09082610deb565b505050565b8151610bd29060c2610e13565b506105a18282604051602001610bea91815260200190565b604051602081830303815290604052610c40565b610c09816004610e7c565b600181602001818151610c1c919061159b565b90525050565b610c2d816007610e7c565b600181602001818151610c1c91906115ae565b610bb48260028351610cc4565b604080518082019091526060815260006020820152610c6d6020836115c1565b15610c9557610c7d6020836115c1565b610c889060206115ae565b610c92908361159b565b91505b602080840183905260405180855260008152908184010181811015610cb957600080fd5b604052509192915050565b60178167ffffffffffffffff1611610cf1578251610ceb9060e0600585901b168317610e13565b50505050565b60ff8167ffffffffffffffff1611610d33578251610d1a906018611fe0600586901b1617610e13565b508251610ceb9067ffffffffffffffff83166001610e93565b61ffff8167ffffffffffffffff1611610d76578251610d5d906019611fe0600586901b1617610e13565b508251610ceb9067ffffffffffffffff83166002610e93565b63ffffffff8167ffffffffffffffff1611610dbb578251610da290601a611fe0600586901b1617610e13565b508251610ceb9067ffffffffffffffff83166004610e93565b8251610dd290601b611fe0600586901b1617610e13565b508251610ceb9067ffffffffffffffff83166008610e93565b604080518082019091526060815260006020820152610e0c83838451610f18565b9392505050565b6040805180820190915260608152600060208201528251516000610e3882600161159b565b905084602001518210610e5957610e5985610e548360026115e3565b610fe9565b8451602083820101858153508051821115610e72578181525b5093949350505050565b8151610bc090601f611fe0600585901b1617610e13565b6040805180820190915260608152600060208201528351516000610eb7828561159b565b90508560200151811115610ed457610ed486610e548360026115e3565b60006001610ee4866101006116de565b610eee91906115ae565b90508651828101878319825116178152508051831115610f0c578281525b50959695505050505050565b6040805180820190915260608152600060208201528251821115610f3b57600080fd5b8351516000610f4a848361159b565b90508560200151811115610f6757610f6786610e548360026115e3565b855180518382016020019160009180851115610f81578482525b505050602086015b60208610610fc15780518252610fa060208361159b565b9150610fad60208261159b565b9050610fba6020876115ae565b9550610f89565b51815160001960208890036101000a0190811690199190911617905250849150509392505050565b8151610ff58383610c4d565b50610ceb8382610deb565b6040518060400160405280611028604051806040016040528060608152602001600081525090565b8152602001600081525090565b634e487b7160e01b600052604160045260246000fd5b604051601f8201601f1916810167ffffffffffffffff8111828210171561107457611074611035565b604052919050565b600067ffffffffffffffff83111561109657611096611035565b6110a9601f8401601f191660200161104b565b90508281528383830111156110bd57600080fd5b828260208301376000602084830101529392505050565b600082601f8301126110e557600080fd5b610e0c8383356020850161107c565b60008060006060848603121561110957600080fd5b83359250602084013567ffffffffffffffff8082111561112857600080fd5b611134878388016110d4565b9350604086013591508082111561114a57600080fd5b50611157868287016110d4565b9150509250925092565b6000815180845260005b818110156111875760208185018101518683018201520161116b565b506000602082860101526020601f19601f83011685010191505092915050565b602081526000610e0c6020830184611161565b60008060408084860312156111ce57600080fd5b833567ffffffffffffffff80821682146111e757600080fd5b90935060209085820135818111156111fe57600080fd5b8601601f8101881361120f57600080fd5b80358281111561122157611221611035565b8060051b61123085820161104b565b918252828101850191858101908b84111561124a57600080fd5b86850192505b8383101561129a578235868111156112685760008081fd5b8501603f81018d1361127a5760008081fd5b61128a8d898301358b840161107c565b8352509186019190860190611250565b80985050505050505050509250929050565b6000602082840312156112be57600080fd5b81356001600160a01b0381168114610e0c57600080fd5b600181811c908216806112e957607f821691505b60208210810361130957634e487b7160e01b600052602260045260246000fd5b50919050565b601f821115610bc057600081815260208120601f850160051c810160208610156113365750805b601f850160051c820191505b8181101561135557828155600101611342565b505050505050565b815167ffffffffffffffff81111561137757611377611035565b61138b8161138584546112d5565b8461130f565b602080601f8311600181146113c057600084156113a85750858301515b600019600386901b1c1916600185901b178555611355565b600085815260208120601f198616915b828110156113ef578886015182559484019460019091019084016113d0565b508582101561140d5787850151600019600388901b60f8161c191681555b5050505050600190811b01905550565b6000815461142a816112d5565b80855260206001838116801561144757600181146114615761148f565b60ff1985168884015283151560051b88018301955061148f565b866000528260002060005b858110156114875781548a820186015290830190840161146c565b890184019650505b505050505092915050565b6060815260006114ad606083018661141d565b82810360208401526114bf818661141d565b905082810360408401526114d3818561141d565b9695505050505050565b634e487b7160e01b600052602160045260246000fd5b634e487b7160e01b600052603260045260246000fd5b634e487b7160e01b600052601160045260246000fd5b60006001820161153157611531611509565b5060010190565b67ffffffffffffffff8616815260a06020820152600061155b60a0830187611161565b61ffff9590951660408301525063ffffffff92909216606083015260809091015292915050565b60006020828403121561159457600080fd5b5051919050565b8082018082111561039857610398611509565b8181038181111561039857610398611509565b6000826115de57634e487b7160e01b600052601260045260246000fd5b500690565b808202811582820484141761039857610398611509565b600181815b8085111561163557816000190482111561161b5761161b611509565b8085161561162857918102915b93841c93908002906115ff565b509250929050565b60008261164c57506001610398565b8161165957506000610398565b816001811461166f576002811461167957611695565b6001915050610398565b60ff84111561168a5761168a611509565b50506001821b610398565b5060208310610133831016604e8410600b84101617156116b8575081810a610398565b6116c283836115fa565b80600019048211156116d6576116d6611509565b029392505050565b6000610e0c838361163d56fea2646970667358221220d8c77460f1136f1507825fd26a4ceba6f55e77c7a9a22ae7b02a7eb091f27a8264736f6c63430008130033636f6e7374206368617261637465724964203d20617267735b305d3b636f6e737420617069526573706f6e7365203d2061776169742046756e6374696f6e732e6d616b654874747052657175657374287b75726c3a206068747470733a2f2f73776170692e6465762f6170692f70656f706c652f247b63686172616374657249647d2f607d293b69662028617069526573706f6e73652e6572726f7229207b7468726f77204572726f72282752657175657374206661696c656427293b7d636f6e7374207b2064617461207d203d20617069526573706f6e73653b72657475726e2046756e6374696f6e732e656e636f6465537472696e6728646174612e6e616d65293b",
  "linkReferences": {},
  "deployedLinkReferences": {}
}